S0130000582D595F706C6F747465722E73726563CA
S11300000C942A000C943C000C943C000C943C008E
S11300100C943C000C943C000C943C000C943C006C
S11300200C943C000C943C000C943C000C943C005C
S11300300C943C000C943C000C943C000C943C004C
S11300400C943C000C943C000C943C000C943C003C
S11300500C943C0011241FBECFE5D4E0DEBFCDBF1D
S113006020E0A0E6B0E001C01D92A43DB207E1F794
S11300700E9497000C9405040C940000CF93DF9326
S1130080CDB7DEB7C456D1090FB6F894DEBF0FBEA4
S1130090CDBFAC01FE0131969E012B593F4F119209
S11300A0E217F307E1F760E070E020E030E0FA01E6
S11300B0E20FF31F90819C3299F4F901E60FF71FC8
S11300C0E40FF51F8181A1E0B0E0AC0FBD1FA60FC6
S11300D0B71F8C9382818D3231F06F5F7F4FE7CFF2
S11300E02F5F3F4FE4CFCE0101960E94DF03CC592E
S11300F0DF4F0FB6F894DEBF0FBECDBFDF91CF91B7
S11301000895FC012081318171836083CB01821BBE
S1130110930B089568EE73E080E190E00E94CB02B7
S113012084B38FEF84BBD79A0E948D0308950E94F5
S11301308A00C2EDD0E001E014E6EEE6F0E01192B0
S1130140EC17FD07E1F78EE690E00E9499038EE636
S113015090E00E94DF0390936B0080936A008EE628
S113016090E00E943E009093690080936800609143
S11301706A0070916B006B3F7105F8F48B3F910539
S1130180E0F482E690E00E948100909367008093FF
S11301906600609168007091690080E690E00E94BA
S11301A0810090936D0080936C0010926B0010920C
S11301B06A00109269001092680080916600909124
S11301C06700992354F49195819591099093670060
S11301D0809366000093650002C0109265008091D0
S11301E06C0090916D00992354F491958195910937
S11301F090936D0080936C000093640002C0109291
S113020064008091660090916700189FA001199F77
S1130210500D1124052E000C660B770B80916500A0
S11302200E94370380916C0090916D00189FA0018B
S1130230199F500D1124052E000C660B770B80912D
S113024064000E946203109267001092660010928C
S11302506D0010926C0071CF672B09F09FC000975E
S113026011F4D89808958130910511F4D99808951E
S11302708230910511F4DA9808958330910511F4D0
S1130280DB9808958430910511F4DC980895853045
S1130290910511F4DD9808958630910511F4DE98E6
S11302A008958730910511F4DF9808958A309105F7
S11302B011F4C09808958B30910511F4C1980895F4
S11302C08C30910511F4C29808958D30910511F484
S11302D0C39808958E30910511F4C49808958F3011
S11302E0910511F4C59808958031910511F4C698CB
S11302F008958131910511F4C798089584319105C9
S113030011F4A89808958531910511F4A9980895D8
S11303108631910511F4AA9808958731910511F455
S1130320AB9808958831910511F4AC9808958931FA
S1130330910511F4AD9808958A31910511F4AE98A0
S113034008958B31910511F4AF9808958E3191057C
S113035011F4909808958F31910511F491980895AE
S11303608032910511F4929808958132910511F427
S1130370939808958232910511F4949808958332E4
S1130380910511F4959808958432910511F4969885
S11303900895859709F09FC097980895009711F4E0
S11303A0D89A08958130910511F4D99A089582302C
S11303B0910511F4DA9A08958330910511F4DB9ACA
S11303C008958430910511F4DC9A089585309105DF
S11303D011F4DD9A08958630910511F4DE9A08959A
S11303E08730910511F4DF9A08958A30910511F44C
S11303F0C09A08958B30910511F4C19A08958C30F8
S1130400910511F4C29A08958D30910511F4C39A9F
S113041008958E30910511F4C49A08958F30910592
S113042011F4C59A08958031910511F4C69A08957E
S11304308131910511F4C79A08958431910511F41D
S1130440A89A08958531910511F4A99A08958631E1
S1130450910511F4AA9A08958731910511F4AB9A84
S113046008958831910511F4AC9A08958931910564
S113047011F4AD9A08958A31910511F4AE9A089554
S11304808B31910511F4AF9A08958E31910511F4D1
S1130490909A08958F31910511F4919A08958032BC
S11304A0910511F4929A08958132910511F4939A69
S11304B008958232910511F4949A08958332910536
S11304C011F4959A08958432910511F4969A089539
S11304D0859709F4979A089560E070E084E190E0CC
S11304E00E942C0160E070E085E190E00E942C0104
S11304F060E070E086E190E00E942C01089561E0E4
S113050070E084E190E00E942C0160E070E085E1FD
S113051090E00E942C0160E070E086E190E00E948F
S11305202C01089560E070E084E190E00E942C01C9
S113053061E070E085E190E00E942C0160E070E0F1
S113054086E190E00E942C01089561E070E084E16E
S113055090E00E942C0161E070E085E190E00E944F
S11305602C0160E070E086E190E00E942C01089587
S113057061E070E084E190E00E942C0161E070E0B1
S113058085E190E00E942C0161E070E086E190E05A
S11305900E942C010895CF93DF93EB0186309105DF
S11305A099F034F48130910549F0029751F014C068
S11305B08830910561F0409769F00EC00E946C028A
S11305C00BC00E947F0208C00E94920205C00E94D4
S11305D0A50202C00E94B802D093D300C093D200F7
S11305E0DF91CF910895BC0188EE93E00E94B70398
S11305F0161617064CF48FEC97E00197F1F700C03C
S1130600000061507109B9F7089561E070E087E175
S113061090E00E942C018091D2009091D3000E941E
S1130620F30260E070E087E190E00E942C0187EC27
S113063090E00197F1F700C00000089561E070E0D8
S113064089E190E00E942C018091D2009091D30026
S11306500E94F30260E070E089E190E00E942C01C6
S113066087EC90E00197F1F700C000000895CF9265
S1130670DF92EF92FF92CF93C82F6A017B01882308
S113068039F061E070E088E190E00E942C0106C03E
S113069060E070E088E190E00E942C011C141D04CD
S11306A01E041F044CF48C2F0E94050381E0C81A19
S11306B0D108E108F108B9F7CF91FF90EF90DF90EE
S11306C0CF900895CF92DF92EF92FF92CF93C82FED
S11306D06A017B01882339F061E070E08AE190E0EF
S11306E00E942C0106C060E070E08AE190E00E9464
S11306F02C011C141D041E041F044CF48C2F0E9496
S11307001E0381E0C81AD108E108F108B9F7CF91B6
S1130710FF90EF90DF90CF90089587E689B910BCE1
S113072088E18AB986E880BD08955F9BFECF8CB1CD
S113073008950F931F93CF938C01C0E00E949503FB
S11307408B3329F4F801EC0FF11D80830CC0883041
S113075021F4CC2311F0C150F1CFF801EC0FF11DBD
S11307608083CF5FEBCFCF911F910F91089597FBBB
S1130770072E16F4009407D077FD09D00E94CB030E
S113078007FC05D03EF4909581959F4F0895709590
S113079061957F4F0895AA1BBB1B51E107C0AA1F97
S11307A0BB1FA617B70710F0A61BB70B881F991F0E
S11307B05A95A9F780959095BC01CD010895FC0147
S11307C088279927E89421912032E9F3293010F001
S11307D02E30C8F32B3241F02D3239F4689404C022
S11307E00E94FD03820F911D219120532A30C0F3F2
S11307F01EF4909581959F4F08957AE0979F902DD0
S1110800879F802D910D11240895F894FFCF49
S9030000FC
