S0130000582D595F706C6F747465722E73726563CA
S11300000C9448000C945A000C945A000C945A0016
S11300100C945A000C945A000C945A000C945A00F4
S11300200C945A000C945A000C945A000C945A00E4
S11300300C945A000C945A000C945A000C945A00D4
S11300400C945A000C945A000C945A000C945A00C4
S11300500C945A004E414E494E495459494E46CD8E
S1130060CCCC3D0AD7233C17B7D13877CC2B32956B
S113007095E6241FB14F0A000020410000C8420049
S1130080401C4620BCBE4CCA1B0E5AAEC59D740013
S113009011241FBECFE5D4E0DEBFCDBF20E0A0E633
S11300A0B0E001C01D92A239B207E1F70E943A0301
S11300B00C94110B0C940000EF92FF920F931F937A
S11300C0CF93DF93CDB7DEB7FC010DB71EB7DC01CC
S11300D00D900020E9F71197BD01681B790B7B0196
S11300E08DB79EB7861B970B0FB6F8949EBF0FBEB5
S11300F08DBF4DB75EB74F5F5F4F1616170614F5E9
S113010080818C32A1F0DF01119620E030E003C041
S11301109D919C3271F02F5F3F4FE216F306C1F7B9
S113012008C091919D93A217B307D9F70BC020E0A3
S113013030E02F5F3F4FE20FF31FDA019A01260FE1
S1130140371FEFCFCA010E942409BC01990F880B05
S1130150990B0E94B8070FB6F8941EBF0FBE0DBFCF
S1130160DF91CF911F910F91FF90EF900895CF925F
S1130170DF92EF92FF92CF93DF93EC016A017B0150
S1130180288139814A815B81C701B6010E940E072B
S1130190C882D982EA82FB82DF91CF91FF90EF90EF
S11301A0DF90CF900895672B09F09FC0009711F45A
S11301B0D89808958130910511F4D9980895823022
S11301C0910511F4DA9808958330910511F4DB98C0
S11301D008958430910511F4DC98089585309105D3
S11301E011F4DD9808958630910511F4DE98089590
S11301F08730910511F4DF9808958A30910511F440
S1130200C09808958B30910511F4C19808958C30ED
S1130210910511F4C29808958D30910511F4C39895
S113022008958E30910511F4C49808958F30910586
S113023011F4C59808958031910511F4C698089574
S11302408131910511F4C79808958431910511F411
S1130250A89808958531910511F4A99808958631D7
S1130260910511F4AA9808958731910511F4AB987A
S113027008958831910511F4AC9808958931910558
S113028011F4AD9808958A31910511F4AE9808954A
S11302908B31910511F4AF9808958E31910511F4C5
S11302A0909808958F31910511F4919808958032B2
S11302B0910511F4929808958132910511F493985F
S11302C008958232910511F494980895833291052A
S11302D011F4959808958432910511F4969808952F
S11302E0859709F09FC097980895009711F4D89ABC
S11302F008958130910511F4D99A089582309105B9
S113030011F4DA9A08958330910511F4DB9A089573
S11303108430910511F4DC9A08958530910511F427
S1130320DD9A08958630910511F4DE9A0895873098
S1130330910511F4DF9A08958A30910511F4C09A59
S113034008958B30910511F4C19A08958C3091056C
S113035011F4C29A08958D30910511F4C39A089549
S11303608E30910511F4C49A08958F30910511F4DB
S1130370C59A08958031910511F4C69A0895813182
S1130380910511F4C79A08958431910511F4A89A3E
S113039008958531910511F4A99A0895863191053E
S11303A011F4AA9A08958731910511F4AB9A08952E
S11303B08831910511F4AC9A08958931910511F4AD
S11303C0AD9A08958A31910511F4AE9A08958B314E
S11303D0910511F4AF9A08958E31910511F4909A14
S11303E008958F31910511F4919A08958032910501
S11303F011F4929A08958132910511F4939A089513
S11304008232910511F4949A08958332910511F47E
S1130410959A08958432910511F4969A08958597D2
S113042009F4979A0895CF93C82F80FF07C061E01D
S113043070E08AE090E00E94D30006C060E070E0C3
S11304408AE090E00E94D300C1FF07C061E070E041
S11304508BE090E00E94D30006C060E070E08BE087
S113046090E00E94D300C2FF07C061E070E08CE01E
S113047090E00E94D30006C060E070E08CE090E061
S11304800E94D300C3FF07C061E070E08DE090E0FC
S11304900E94D30006C060E070E08DE090E00E940E
S11304A0D300CF910895CF93C82F60E070E08EE021
S11304B090E00E94D3008C2F0E94130261E070E050
S11304C08FE090E00E94D3008FE99FE00197F1F75D
S11304D000C0000060E070E08FE090E00E94D30074
S11304E08FE99FE00197F1F700C00000CF910895D4
S11304F080E00E94530281E00E9453020895CF934A
S1130500C62F813059F480E8860F82958F700E943F
S113051053028C2F8F700E9453020CC0823051F40E
S113052080EC860F82958F700E9453028C2F8F70FF
S11305300E945302CF91089580E00E9413022FEF8E
S113054089EF90E0215080409040E1F700C0000026
S113055083E00E9453028FE19EE40197F1F700C00B
S1130560000083E00E9453028FED9BEA0197F1F7AC
S113057000C0000083E00E94530282E00E94530204
S113058082E00E94530288E00E94530280E00E94AD
S113059053028CE00E94530280E00E94530286E0E2
S11305A00E9453020895CF93C82F61E070E08EE05B
S11305B090E00E94D3008C2F82958F700E941302CA
S11305C061E070E08FE090E00E94D3008FE99FE04B
S11305D00197F1F700C0000060E070E08FE090E068
S11305E00E94D3008FE99FE00197F1F700C000005B
S11305F08C2F8F700E94130261E070E08FE090E016
S11306000E94D3008FE99FE00197F1F700C000003A
S113061060E070E08FE090E00E94D3008FE99FE0FB
S11306200197F1F700C00000CF910895CF93DF93B5
S1130630EC018881882331F021960E94D3028991AC
S11306408111FBCFDF91CF91089568EE73E080E1D3
S113065090E00E94090684B38F6784BB87B38F63DD
S113066087BB60E875E280E090E00E94E4060E94A7
S11306709C0208950E9425038AE790E00E94F006F8
S11306800E949C020E94780261E081E00E947F0245
S11306908AE790E00E9416038AE790E00E94280906
S11306A0BC01990F880B990B0E94B80760937200E4
S11306B07093730080937400909375008AE790E0C0
S11306C00E945C0060936E0070936F0080937000D2
S11306D0909371002FEF81EE94E021508040904080
S11306E0E1F700C00000C0907200D0907300E09069
S11306F07400F090750020E030E04AE753E4C7014D
S1130700B6010E94680818160CF446C080906E006A
S113071090906F00A0907000B090710020E030E0E5
S11307204AE753E4C501B4010E9468081816A4F10D
S113073020E030E0A901C701B6010E947B078823AD
S11307405CF120E030E0A901C501B4010E947B07FF
S1130750882314F1B701A60184E690E00E94B70053
S113076060936A0070936B0080936C0090936D00AB
S113077040916E0050916F00609170007091710013
S113078080E690E00E94B700609376007093770053
S11307908093780090937900C0906A00D0906B00A9
S11307A0E0906C00F0906D0020E030E0A901C701FA
S11307B0B6010E947B0788237CF4F7FAF094F7F8DB
S11307C0F094C0926A00D0926B00E0926C00F092B8
S11307D06D0081E080936900C0907600D09077002E
S11307E0E0907800F090790020E030E0A901C701A2
S11307F0B6010E947B0788237CF4F7FAF094F7F89B
S1130800F094C0927600D0927700E0927800F09253
S1130810790081E08093680060916A0070916B00B8
S113082080916C0090916D000E948007EB011C1672
S11308301D06ECF461E0809169000E94430620E00B
S113084030E040E85FE360916A0070916B00809152
S11308506C0090916D000E940E0760936A00709383
S11308606B0080936C0090936D00219719F720E042
S113087030E0A90160917600709177008091780052
S1130880909179000E94680818160CF0F5CE61E08A
S1130890809168000E94720620E030E040E85FE347
S11308A06091760070917700809178009091790042
S11308B00E940E076093760070937700809378000F
S11308C09093790020E030E0A9010E94680818168E
S11308D0F4F2D2CE672B09F09FC0009711F4D89898
S11308E008958130910511F4D998089582309105C5
S11308F011F4DA9808958330910511F4DB98089582
S11309008430910511F4DC9808958530910511F433
S1130910DD9808958630910511F4DE9808958730A6
S1130920910511F4DF9808958A30910511F4C09867
S113093008958B30910511F4C19808958C30910578
S113094011F4C29808958D30910511F4C398089557
S11309508E30910511F4C49808958F30910511F4E7
S1130960C59808958031910511F4C6980895813190
S1130970910511F4C79808958431910511F4A8984C
S113098008958531910511F4A9980895863191054A
S113099011F4AA9808958731910511F4AB9808953C
S11309A08831910511F4AC9808958931910511F4B9
S11309B0AD9808958A31910511F4AE9808958B315C
S11309C0910511F4AF9808958E31910511F4909822
S11309D008958F31910511F491980895803291050D
S11309E011F4929808958132910511F49398089521
S11309F08232910511F4949808958332910511F48B
S1130A00959808958432910511F4969808958597E0
S1130A1009F09FC097980895009711F4D89A089503
S1130A208130910511F4D99A08958230910511F419
S1130A30DA9A08958330910511F4DB9A089584308D
S1130A40910511F4DC9A08958530910511F4DD9A2D
S1130A5008958630910511F4DE9A08958730910542
S1130A6011F4DF9A08958A30910511F4C09A08951B
S1130A708B30910511F4C19A08958C30910511F4CD
S1130A80C29A08958D30910511F4C39A08958E3059
S1130A90910511F4C49A08958F30910511F4C59A03
S1130AA008958031910511F4C69A08958131910514
S1130AB011F4C79A08958431910511F4A89A089500
S1130AC08531910511F4A99A08958631910511F49F
S1130AD0AA9A08958731910511F4AB9A0895883143
S1130AE0910511F4AC9A08958931910511F4AD9AE8
S1130AF008958A31910511F4AE9A08958B319105C8
S1130B0011F4AF9A08958E31910511F4909A0895D5
S1130B108F31910511F4919A08958032910511F461
S1130B20929A08958132910511F4939A089582322C
S1130B30910511F4949A08958332910511F4959ACC
S1130B4008958432910511F4969A0895859709F4CD
S1130B50979A089560E070E084E190E00E946A044E
S1130B6060E070E085E190E00E946A0460E070E07B
S1130B7086E190E00E946A04089561E070E084E1F7
S1130B8090E00E946A0460E070E085E190E00E94D9
S1130B906A0460E070E086E190E00E946A040895CF
S1130BA060E070E084E190E00E946A0461E070E03B
S1130BB085E190E00E946A0460E070E086E190E0E4
S1130BC00E946A04089561E070E084E190E00E946C
S1130BD06A0461E070E085E190E00E946A0460E0EC
S1130BE070E086E190E00E946A04089561E070E09C
S1130BF084E190E00E946A0461E070E085E190E0A5
S1130C000E946A0461E070E086E190E00E946A0458
S1130C100895CF93DF93EB018630910599F034F476
S1130C208130910549F0029751F014C08830910544
S1130C3061F0409769F00EC00E94AA050BC00E94A3
S1130C40BD0508C00E94D00505C00E94E30502C08E
S1130C500E94F605D0938F00C0938E00DF91CF9150
S1130C600895BC0188EE93E00E94DA081616170670
S1130C704CF48FEC97E00197F1F700C0000061504D
S1130C807109B9F70895CF93C62F882339F061E02D
S1130C9070E087E190E00E946A0406C060E070E0C2
S1130CA087E190E00E946A04CC23D1F061E070E017
S1130CB088E190E00E946A0480918E0090918F00F8
S1130CC00E94310660E070E088E190E00E946A04CE
S1130CD080918E0090918F000E943106C15031F7AF
S1130CE0CF910895CF93C62F882339F061E070E047
S1130CF08AE190E00E946A0406C060E070E08AE144
S1130D0090E00E946A04CC23D1F061E070E089E1B4
S1130D1090E00E946A0480918E0090918F000E945E
S1130D20310660E070E089E190E00E946A048091FD
S1130D308E0090918F000E943106C15031F7CF91FF
S1130D4008950F931F938B019C01DC01CB01805606
S1130D509940A109B109813A984BA140B10568F5C0
S1130D6080E090E0DC01801B910BA20BB30B880F99
S1130D70991FAA1FBB1F880F991FAA1FBB1F880F8B
S1130D80991FAA1FBB1FBC01CD017C5D8B409F4FE7
S1130D90000F111F221F331F000F111F221F331FAB
S1130DA0A9019801220F331F441F551F220F331F1F
S1130DB0441F551F0E94EE0802C027E630E029B9FF
S1130DC030BD1F910F91089528E12AB926E820BD6E
S1130DD01BB80E94A10608955F9BFECF8CB10895B5
S1130DE00F931F93CF938C01C0E00E94EC068B33CA
S1130DF029F4F801EC0FF11D80830CC0883021F434
S1130E00CC2311F0C150F1CFF801EC0FF11D808318
S1130E10CF5FEBCFCF911F910F9108955058BB270F
S1130E20AA270E9426070C942E080E94200838F056
S1130E300E94270820F039F49F3F19F426F40C94FB
S1130E401D080EF4E095E7FB0C941708E92F0E94A7
S1130E503F0858F3BA17620773078407950720F011
S1130E6079F4A6F50C9461080EF4E0950B2EBA2FD4
S1130E70A02D0B01B90190010C01CA01A00111249C
S1130E80FF27591B99F0593F50F4503E68F11A1648
S1130E90F040A22F232F342F4427585FF3CF4695D9
S1130EA037952795A795F0405395C9F77EF41F16FB
S1130EB0BA0B620B730B840BBAF09150A1F0FF0FC5
S1130EC0BB1F661F771F881FC2F70EC0BA0F621FB1
S1130ED0731F841F48F4879577956795B795F795A1
S1130EE09E3F08F0B0CF9395880F08F09927EE0F36
S1130EF09795879508950E94F30708F481E0089573
S1130F000E9487076894B1110C94620808950E94A6
S1130F10470888F09F5798F0B92F9927B751B0F038
S1130F20E1F0660F771F881F991F1AF0BA95C9F769
S1130F3014C0B13091F00E946108B1E008950C949E
S1130F406108672F782F8827B85F39F0B93FCCF351
S1130F50869577956795B395D9F73EF490958095E6
S1130F60709561957F4F8F4F9F4F0895E89409C006
S1130F7097FB3EF490958095709561957F4F8F4FC8
S1130F809F4F9923A9F0F92F96E9BB279395F695DE
S1130F90879577956795B795F111F8CFFAF4BB0F5C
S1130FA011F460FF1BC06F5F7F4F8F4F9F4F16C0C0
S1130FB0882311F096E911C0772321F09EE8872F4A
S1130FC0762F05C0662371F096E8862F70E060E006
S1130FD02AF09A95660F771F881FDAF7880F96957F
S1130FE0879597F90895990F0008550FAA0BE0E823
S1130FF0FEEF16161706E807F907C0F012161306D7
S1131000E407F50798F0621B730B840B950B39F416
S11310100A2661F0232B242B252B21F408950A267C
S113102009F4A140A6958FEF811D811D089597F9BC
S11310309F6780E870E060E008959FEF80EC08957A
S113104000240A94161617061806090608950024A3
S11310500A9412161306140605060895092E03941D
S1131060000C11F4882352F0BB0F40F4BF2B11F491
S113107060FF04C06F5F7F4F8F4F9F4F089557FDF0
S11310809058440F551F59F05F3F71F04795880FF2
S113109097FB991F61F09F3F79F087950895121689
S11310A013061406551FF2CF4695F1DF08C0161635
S11310B017061806991FF1CF8695710561050894E6
S11310C00895E894BB2766277727CB0197F90895FD
S11310D00E94F30708F48FEF08950E9480080C948F
S11310E02E080E94200838F00E94270820F095233B
S11310F011F00C9417080C941D0811240C94620828
S11311000E943F0870F3959FC1F3950F50E0551F5F
S1131110629FF001729FBB27F00DB11D639FAA2748
S1131120F00DB11DAA1F649F6627B00DA11D661F97
S1131130829F2227B00DA11D621F739FB00DA11DB8
S1131140621F839FA00D611D221F749F3327A00D72
S1131150611D231F849F600D211D822F762F6A2F0E
S113116011249F5750409AF0F1F088234AF0EE0F73
S1131170FF1FBB1F661F771F881F91505040A9F7A0
S11311809E3F510580F00C9417080C9462085F3F51
S1131190E4F3983ED4F3869577956795B795F795DC
S11311A0E7959F5FC1F7FE2B880F911D9695879554
S11311B097F9089597FB072E16F4009407D077FD4E
S11311C009D00E94100907FC05D03EF49095819542
S11311D09F4F0895709561957F4F0895A1E21A2E4F
S11311E0AA1BBB1BFD010DC0AA1FBB1FEE1FFF1FC7
S11311F0A217B307E407F50720F0A21BB30BE40B17
S1131200F50B661F771F881F991F1A9469F760955D
S11312107095809590959B01AC01BD01CF01089517
S1131220AA1BBB1B51E107C0AA1FBB1FA617B70708
S113123010F0A61BB70B881F991F5A95A9F7809524
S11312409095BC01CD010895662777270C944E092B
S1131250FC0188279927E89421912032E9F3293069
S113126010F02E30C8F32B3241F02D3239F468944B
S113127004C00E944609820F911D219120532A30F7
S1131280C0F31EF4909581959F4F08957AE0979F3F
S1131290902D879F802D910D11240895A0E0B0E03A
S11312A0E4E5F9E00C94D10AEC016B0161157105D8
S11312B019F0FB01918380837E01FFEFEF1AFF0A8F
S11312C00881802F90E00E949C0A892B11F0E7018D
S11312D0F3CF0D3239F47E0182E0E80EF11C09816E
S11312E011E008C00B3229F47E0192E0E90EF11CF2
S11312F0098110E0E701219743E050E06CE570E0DC
S1131300CE010E94A50A892BC1F4239645E050E042
S113131067E570E0CE010E94A50A892B09F42596A1
S1131320C114D10419F0F601D183C0831111F6C0A0
S113133060E070E080E89FE7FAC043E050E064E5D5
S113134070E0CE010E94A50A892B59F4C114D1047E
S113135009F4E9C0F2E0EF0EF11CF601F182E0823B
S1131360E2C020E030E0A901C0E0D0E0F70180ED68
S1131370A82EA00E89E08A1530F1912F9260B92E23
S1131380812F887012FF04C0811124C0219622C0CD
S113139081112197A5E0B0E00E94C00ADC01CB01D5
S11313A0880F991FAA1FBB1F9C01AD012A0D311D77
S11313B0411D511D283989E93807480789E1580733
S11313C048F0166006C09EEFA9120AC013FD40C083
S11313D01860B12E8FEFE81AF80A00811B2DC6CFD2
S11313E0802F8F7D8534A1F580818D3211F41061B9
S11313F006C08B3221F0319661E070E004C0818137
S1131400329662E070E080538A3018F0E61BF70BE6
S11314101FC060E070E060389CE079075CF4DB0199
S1131420AA0FBB1FAA0FBB1F6A0F7B1F660F771F74
S1131430680F711D3196DF0111978C9180538A30AA
S113144050F314FF03C0719561957109C60FD71F3E
S113145011FF08C0C114D10429F0CF010197F6018E
S113146091838083CA01B9010E94B607212F23709A
S1131470233019F04B015C0106C04B015C01B7FA43
S1131480B094B7F8B09420E030E0A901C501B401EC
S11314900E947B07882309F43EC0D7FF06C0D1957C
S11314A0C195D10903E710E002C00BE810E0680120
S11314B0F8E1CF1AD10890E2E92EF12CCE15DF0520
S11314C074F0F8012591359145915491C501B40109
S11314D00E946D084B015C01CE19DF09EFCF045067
S11314E01109F594E7940C151D0541F78A2D880F11
S11314F08B2D881F8F3F49F020E030E0A901C50102
S1131500B4010E947B07811106C082E290E09093AF
S1131510910080939000C501B40109C060E070E0BF
S113152080E89FEF04C060E070E080EC9FE7CDB7F7
S1131530DEB7ECE00C94ED0A91110C94BD0A8032F4
S113154019F089508550C8F70895FB01DC0141501A
S1131550504088F08D9181341CF08B350CF4805E02
S1131560659161341CF06B350CF4605E861B61116F
S113157071F3990B0895881BFCCF99278827089548
S11315800E94020BA59F900DB49F900DA49F800D07
S1131590911D112408952F923F924F925F926F9262
S11315A07F928F929F92AF92BF92CF92DF92EF92EF
S11315B0FF920F931F93CF93DF93CDB7DEB7CA1B70
S11315C0DB0B0FB6F894DEBF0FBECDBF09942A889B
S11315D0398848885F846E847D848C849B84AA8443
S11315E0B984C884DF80EE80FD800C811B81AA81D0
S11315F0B981CE0FD11D0FB6F894DEBF0FBECDBF9B
S1131600ED010895A29FB001B39FC001A39F700D87
S1131610811D1124911DB29F700D811D1124911DF6
S10916200895F894FFCFC9
S9030000FC
