S0130000582D595F706C6F747465722E73726563CA
S11300000C942A000C943C000C943C000C943C008E
S11300100C943C000C943C000C943C000C943C006C
S11300200C943C000C943C000C943C000C943C005C
S11300300C943C000C943C000C943C000C943C004C
S11300400C943C000C943C000C943C000C943C003C
S11300500C943C0011241FBECFE5D4E0DEBFCDBF1D
S113006020E0A0E6B0E001C01D92AA3AB207E1F791
S11300700E94FF020C9444080C940000EF92FF923B
S11300800F931F93CF93DF93CDB7DEB7FC010DB76A
S11300901EB7DC010D900020E9F71197BD01681B24
S11300A0790B7B018DB79EB7861B970B0FB6F8941F
S11300B09EBF0FBE8DBF4DB75EB74F5F5F4F161625
S11300C0170614F580818C32A1F0DF01119620E02F
S11300D030E003C09D919C3271F02F5F3F4FE216D8
S11300E0F306C1F708C091919D93A217B307D9F7FE
S11300F00BC020E030E02F5F3F4FE20FF31FDA0127
S11301009A01260F371FEFCFCA010E94E9070FB6E5
S1130110F8941EBF0FBE0DBFDF91CF911F910F91B9
S1130120FF90EF900895FC012081318171836083F9
S1130130CB01821B930B0895672B09F09FC0009796
S113014011F4D89808958130910511F4D99808953F
S11301508230910511F4DA9808958330910511F4F1
S1130160DB9808958430910511F4DC980895853066
S1130170910511F4DD9808958630910511F4DE9807
S113018008958730910511F4DF9808958A30910518
S113019011F4C09808958B30910511F4C198089515
S11301A08C30910511F4C29808958D30910511F4A5
S11301B0C39808958E30910511F4C49808958F3032
S11301C0910511F4C59808958031910511F4C698EC
S11301D008958131910511F4C798089584319105EA
S11301E011F4A89808958531910511F4A9980895FA
S11301F08631910511F4AA9808958731910511F477
S1130200AB9808958831910511F4AC98089589311B
S1130210910511F4AD9808958A31910511F4AE98C1
S113022008958B31910511F4AF9808958E3191059D
S113023011F4909808958F31910511F491980895CF
S11302408032910511F4929808958132910511F448
S1130250939808958232910511F494980895833205
S1130260910511F4959808958432910511F49698A6
S11302700895859709F09FC097980895009711F401
S1130280D89A08958130910511F4D99A089582304D
S1130290910511F4DA9A08958330910511F4DB9AEB
S11302A008958430910511F4DC9A08958530910500
S11302B011F4DD9A08958630910511F4DE9A0895BB
S11302C08730910511F4DF9A08958A30910511F46D
S11302D0C09A08958B30910511F4C19A08958C3019
S11302E0910511F4C29A08958D30910511F4C39AC1
S11302F008958E30910511F4C49A08958F309105B4
S113030011F4C59A08958031910511F4C69A08959F
S11303108131910511F4C79A08958431910511F43E
S1130320A89A08958531910511F4A99A0895863102
S1130330910511F4AA9A08958731910511F4AB9AA5
S113034008958831910511F4AC9A08958931910585
S113035011F4AD9A08958A31910511F4AE9A089575
S11303608B31910511F4AF9A08958E31910511F4F2
S1130370909A08958F31910511F4919A08958032DD
S1130380910511F4929A08958132910511F4939A8A
S113039008958232910511F4949A08958332910557
S11303A011F4959A08958432910511F4969A08955A
S11303B0859709F4979A0895CF93C82F80FF07C0B3
S11303C061E070E08AE090E00E949C0006C060E07A
S11303D070E08AE090E00E949C00C1FF07C061E0E9
S11303E070E08BE090E00E949C0006C060E070E04A
S11303F08BE090E00E949C00C2FF07C061E070E0C7
S11304008CE090E00E949C0006C060E070E08CE00C
S113041090E00E949C00C3FF07C061E070E08DE0A3
S113042090E00E949C0006C060E070E08DE090E0E7
S11304300E949C00CF910895CF93C82F60E070E094
S11304408EE090E00E949C008C2F0E94DC0161E011
S113045070E08FE090E00E949C008FE99FE001979C
S1130460F1F700C0000060E070E08FE090E00E94CF
S11304709C008FE99FE00197F1F700C00000CF9145
S1130480089580E00E941C0281E00E941C020895ED
S1130490CF93C62F813059F480E8860F82958F70F0
S11304A00E941C028C2F8F700E941C020CC0823090
S11304B051F480EC860F82958F700E941C028C2F61
S11304C08F700E941C02CF91089580E00E94DC018D
S11304D02FEF89EF90E0215080409040E1F700C079
S11304E0000083E00E941C028FE19EE40197F1F773
S11304F000C0000083E00E941C028FED9BEA01977C
S1130500F1F700C0000083E00E941C0282E00E9418
S11305101C0282E00E941C0288E00E941C0280E00F
S11305200E941C028CE00E941C0280E00E941C02BB
S113053086E00E941C020895CF93C82F61E070E00A
S11305408EE090E00E949C008C2F82958F700E9418
S1130550DC0161E070E08FE090E00E949C008FE994
S11305609FE00197F1F700C0000060E070E08FE0C9
S113057090E00E949C008FE99FE00197F1F700C092
S113058000008C2F8F700E94DC0161E070E08FE02E
S113059090E00E949C008FE99FE00197F1F700C072
S11305A0000060E070E08FE090E00E949C008FE922
S11305B09FE00197F1F700C00000CF910895CF9319
S11305C0DF93EC018881882331F021960E949C02FC
S11305D089918111FBCFDF91CF91089568EE73E08B
S11305E081E090E00E94D80584B38F6784BB87B311
S11305F08F6387BB0E9470060E94650208950E9463
S1130600EE020E9441020E947C068EE690E00E9467
S1130610E90790937E0080937D008EE690E00E942F
S11306203E0090937B0080937A004AE06FE770E08D
S113063080917D0090917E000E9407084AE063E962
S113064070E080917A0090917B000E94070861E03D
S113065081E00E9448028FE790E00E94DF0261E09F
S113066082E00E94480283E990E00E94DF022FEFBB
S113067089E698E1215080409040E1F700C00000F5
S113068060917D0070917E006B3F7105D8F480917C
S11306907A0090917B008B3F9105A0F482E690E074
S11306A00E949300909377008093760060917A0083
S11306B070917B0080E690E00E9493009093790013
S11306C0809378006091760070917700072E000C7B
S11306D0880B990B0E940C07D62EE72EF82E092FB3
S11306E06091780070917900072E000C880B990BAB
S11306F00E940C07162FD72FC82FC92E8090680090
S113070090906900A0906A00B0906B0020E030E007
S1130710A901C501B4010E940507882359F0A50168
S113072094016D2D7E2D8F2D902F0E9498064B01E4
S11307305C0104C08D2C9E2CAF2CB02E4090640024
S113074050906500609066007090670020E030E093
S1130750A901C301B2010E940507882359F0A3012E
S11307609201612F7D2F8C2F9C2D0E9498062B01C6
S11307703C0104C0412E5D2E6C2E7C2C20E030E028
S1130780A901C501B4010E94050788233CF4B7FA06
S1130790B094B7F8B09481E080937C0020E030E01E
S11307A0A901C301B2010E94050788233CF477FA2A
S11307B0709477F8709481E08093A70020E030E093
S11307C0A901C501B4010E94BC078823C4F080912B
S11307D07C0061E070E090E00E94120620E030E0CE
S11307E040E85FE3C501B4010E9498064B015C0137
S11307F020E030E0A9010E94BC07882344F720E0F0
S113080030E0A901C301B2010E94BC078823C4F0EF
S11308108091A70061E070E090E00E94410620E032
S113082030E040E85FE3C301B2010E9498062B0167
S11308303C0120E030E0A9010E94BC07882344F772
S11308408D2D9E2DAF2DB02F80936800909369005D
S1130850A0936A00B0936B00812F9D2FAC2FBC2D09
S11308608093640090936500A0936600B093670042
S1130870C8CE672B09F09FC0009711F4D89808954B
S11308808130910511F4D99808958230910511F4BD
S1130890DA9808958330910511F4DB980895843033
S11308A0910511F4DC9808958530910511F4DD98D3
S11308B008958630910511F4DE98089587309105E6
S11308C011F4DF9808958A30910511F4C0980895C1
S11308D08B30910511F4C19808958C30910511F471
S11308E0C29808958D30910511F4C39808958E30FF
S11308F0910511F4C49808958F30910511F4C598A9
S113090008958031910511F4C698089581319105B7
S113091011F4C79808958431910511F4A8980895A5
S11309208531910511F4A99808958631910511F442
S1130930AA9808958731910511F4AB9808958831E8
S1130940910511F4AC9808958931910511F4AD988D
S113095008958A31910511F4AE9808958B3191056B
S113096011F4AF9808958E31910511F4909808957B
S11309708F31910511F4919808958032910511F405
S1130980929808958132910511F4939808958232D2
S1130990910511F4949808958332910511F4959872
S11309A008958432910511F496980895859709F075
S11309B09FC097980895009711F4D89A08958130AC
S11309C0910511F4D99A08958230910511F4DA9AB7
S11309D008958330910511F4DB9A089584309105CC
S11309E011F4DC9A08958530910511F4DD9A089587
S11309F08630910511F4DE9A08958730910511F43B
S1130A00DF9A08958A30910511F4C09A08958B30C5
S1130A10910511F4C19A08958C30910511F4C29A8C
S1130A2008958D30910511F4C39A08958E3091057F
S1130A3011F4C49A08958F30910511F4C59A08955C
S1130A408031910511F4C69A08958131910511F40C
S1130A50C79A08958431910511F4A89A08958531AF
S1130A60910511F4A99A08958631910511F4AA9A71
S1130A7008958731910511F4AB9A08958831910551
S1130A8011F4AC9A08958931910511F4AD9A089541
S1130A908A31910511F4AE9A08958B31910511F4C0
S1130AA0AF9A08958E31910511F4909A08958F317B
S1130AB0910511F4919A08958032910511F4929A56
S1130AC008958132910511F4939A08958232910523
S1130AD011F4949A08958332910511F4959A089526
S1130AE08432910511F4969A0895859709F4979A9A
S1130AF0089560E070E084E190E00E94390460E0D1
S1130B0070E085E190E00E94390460E070E086E1E5
S1130B1090E00E943904089561E070E084E190E07F
S1130B200E94390460E070E085E190E00E9439049D
S1130B3060E070E086E190E00E943904089560E08E
S1130B4070E084E190E00E94390461E070E085E1A6
S1130B5090E00E94390460E070E086E190E00E9439
S1130B603904089561E070E084E190E00E94390462
S1130B7061E070E085E190E00E94390460E070E09B
S1130B8086E190E00E943904089561E070E084E118
S1130B9090E00E94390461E070E085E190E00E94F9
S1130BA0390461E070E086E190E00E943904089520
S1130BB0CF93DF93EB018630910599F034F48130C3
S1130BC0910549F0029751F014C08830910561F005
S1130BD0409769F00EC00E9479050BC00E948C05F5
S1130BE008C00E949F0505C00E94B20502C00E9471
S1130BF0C505D093A900C093A800DF91CF910895B3
S1130C00BC0188EE93E00E94C107161617064CF447
S1130C1089EF90E00197F1F700C00000615071097D
S1130C20B9F70895CF93C62F882339F061E070E0B7
S1130C3088E190E00E94390406C060E070E088E139
S1130C4090E00E943904CC23D1F061E070E087E1A8
S1130C5090E00E94390489EF90E00197F1F700C019
S1130C60000060E070E087E190E00E943904809128
S1130C70A8009091A9000E940006C15031F7CF91BD
S1130C800895CF93C62F882339F061E070E08AE19C
S1130C9090E00E94390406C060E070E08AE190E0D0
S1130CA00E943904CC23D1F061E070E089E190E046
S1130CB00E94390489EF90E00197F1F700C0000029
S1130CC060E070E089E190E00E9439048091A8001E
S1130CD09091A9000E940006C15031F7CF91089568
S1130CE083E389B910BC88E18AB986E080BD0895A0
S1130CF05F9BFECF8CB10895CF93DF9310926D006C
S1130D0010926C00C0E0D0E00E947806C259DF4F18
S1130D108883C0916C00D0916D002196D0936D00B2
S1130D20C0936C00C730D1057CF3DF91CF91089557
S1130D305058BB27AA270E94B0060C9482070E9431
S1130D40740738F00E947B0720F039F49F3F19F4B0
S1130D5026F40C9471070EF4E095E7FB0C946B07F2
S1130D60E92F0E94930758F3BA17620773078407A1
S1130D70950720F079F4A6F50C94B5070EF4E095E8
S1130D800B2EBA2FA02D0B01B90190010C01CA0141
S1130D90A0011124FF27591B99F0593F50F4503EEC
S1130DA068F11A16F040A22F232F342F4427585FDE
S1130DB0F3CF469537952795A795F0405395C9F7F6
S1130DC07EF41F16BA0B620B730B840BBAF09150AE
S1130DD0A1F0FF0FBB1F661F771F881FC2F70EC04D
S1130DE0BA0F621F731F841F48F487957795679520
S1130DF0B795F7959E3F08F0B0CF9395880F08F00C
S1130E009927EE0F9795879508950E94470708F450
S1130E1081E00895E89409C097FB3EF4909580958D
S1130E20709561957F4F8F4F9F4F9923A9F0F92FAC
S1130E3096E9BB279395F695879577956795B7952A
S1130E40F111F8CFFAF4BB0F11F460FF1BC06F5F10
S1130E507F4F8F4F9F4F16C0882311F096E911C022
S1130E60772321F09EE8872F762F05C0662371F043
S1130E7096E8862F70E060E02AF09A95660F771F57
S1130E80881FDAF7880F9695879597F90895990F33
S1130E900008550FAA0BE0E8FEEF16161706E80740
S1130EA0F907C0F012161306E407F50798F0621B61
S1130EB0730B840B950B39F40A2661F0232B242B36
S1130EC0252B21F408950A2609F4A140A6958FEF55
S1130ED0811D811D089597F99F6780E870E060E0A7
S1130EE008959FEF80EC089500240A9416161706BF
S1130EF018060906089500240A9412161306140607
S1130F0005060895092E0394000C11F4882352F069
S1130F10BB0F40F4BF2B11F460FF04C06F5F7F4F21
S1130F208F4F9F4F089557FD9058440F551F59F008
S1130F305F3F71F04795880F97FB991F61F09F3FC2
S1130F4079F087950895121613061406551FF2CFEB
S1130F504695F1DF08C0161617061806991FF1CF3B
S1130F6086957105610508940895E894BB27662762
S1130F707727CB0197F908950E94470708F48FEF6C
S1130F80089597FB072E16F4009407D077FD09D037
S1130F900E94D50707FC05D03EF4909581959F4F9C
S1130FA00895709561957F4F0895AA1BBB1B51E16D
S1130FB007C0AA1FBB1FA617B70710F0A61BB70BC5
S1130FC0881F991F5A95A9F780959095BC01CD016A
S1130FD00895FC0188279927E89421912032E9F3A8
S1130FE0293010F02E30C8F32B3241F02D3239F471
S1130FF0689404C00E941208820F911D219120530D
S11310002A30C0F31EF4909581959F4F0895BB2715
S11310104A3031F4992322F4BDE2909581959F4F93
S11310200C941B087AE0979F902D879F802D910D3B
S113103011240895BB27FB015527AA27880F991F60
S1131040AA1FA41710F0A41B83955051B9F7A05DF3
S1131050AA3308F0A95DA193009779F7B111B19370
S11310601192CB010C943408DC01FC01672F7191BF
S11310707723E1F7329704C07C916D93708362917A
S10F1080AE17BF07C8F30895F894FFCF23
S9030000FC
