S0130000582D595F706C6F747465722E73726563CA
S11300000C942A000C943C000C943C000C943C008E
S11300100C943C000C943C000C943C000C943C006C
S11300200C943C000C943C000C943C000C943C005C
S11300300C943C000C943C000C943C000C943C004C
S11300400C943C000C943C000C943C000C943C003C
S11300500C943C0011241FBECFE5D4E0DEBFCDBF1D
S113006020E0A0E6B0E001C01D92A038B207E1F79D
S11300700E94AC000C94C5050C940000EF92FF9212
S11300800F931F93CF93DF93CDB7DEB7FC010DB76A
S11300901EB7DC010D900020E9F71197BD01681B24
S11300A0790B7B018DB79EB7861B970B0FB6F8941F
S11300B09EBF0FBE8DBF4DB75EB74F5F5F4F161625
S11300C0170614F580818C32A1F0DF01119620E02F
S11300D030E003C09D919C3271F02F5F3F4FE216D8
S11300E0F306C1F708C091919D93A217B307D9F7FE
S11300F00BC020E030E02F5F3F4FE20FF31FDA0127
S11301009A01260F371FEFCFCA010E949F050FB631
S1130110F8941EBF0FBE0DBFDF91CF911F910F91B9
S1130120FF90EF900895FC012081318171836083F9
S1130130CB01821B930B089568EE73E080E190E09D
S11301400E94560384B38F6784BB60E875E280E045
S113015090E00E94020408950E949C00332433948A
S113016085E790E00E940E0485E790E00E949F05D9
S1130170909374008093730085E790E00E943E00A2
S1130180909371008093700060917300709174007B
S11301906B3F7105B8F48B3F9105A0F482E690E0C3
S11301A00E94930090936D0080936C0060917000A6
S11301B07091710080E690E00E94930090936F002C
S11301C080936E0060916C0070916D00072E000C9E
S11301D0880B990B0E94A004D62EE72EF82E092F27
S11301E060916E0070916F00072E000C880B990BC4
S11301F00E94A004162FD72FC82FC92E8090680004
S113020090906900A0906A00B0906B0020E030E00C
S1130210A901C501B4010E949904882359F0A501DC
S113022094016D2D7E2D8F2D902F0E942C044B0157
S11302305C0104C08D2C9E2CAF2CB02E4090640029
S113024050906500609066007090670020E030E098
S1130250A901C301B2010E949904882359F0A301A2
S11302609201612F7D2F8C2F9C2D0E942C042B0139
S11302703C0104C0412E5D2E6C2E7C2C20E030E02D
S1130280A901C501B4010E949904882334F4B7FA82
S1130290B094B7F8B0943092720020E030E0A90135
S11302A0C301B2010E949904882334F477FA70944C
S11302B077F8709430927D0020E030E0A901C50108
S11302C0B4010E9450058823C4F08091720061E05B
S11302D070E090E00E94900320E030E040E85FE3AB
S11302E0C501B4010E942C044B015C0120E030E004
S11302F0A9010E945005882344F720E030E0A901B9
S1130300C301B2010E9450058823C4F080917D008E
S113031061E070E090E00E94900320E030E040E86B
S11303205FE3C301B2010E942C042B013C0120E0D5
S113033030E0A9010E945005882344F78D2D9E2D9D
S1130340AF2DB02F8093680090936900A0936A004A
S1130350B0936B00812F9D2FAC2FBC2D8093640034
S113036090936500A0936600B0936700F9CE672B65
S113037009F09FC0009711F4D89808958130910531
S113038011F4D99808958230910511F4DA980895FA
S11303908330910511F4DB9808958430910511F4AC
S11303A0DC9808958530910511F4DD980895863020
S11303B0910511F4DE9808958730910511F4DF98C2
S11303C008958A30910511F4C09808958B309105F1
S11303D011F4C19808958C30910511F4C2980895D0
S11303E08D30910511F4C39808958E30910511F460
S11303F0C49808958F30910511F4C59808958031FB
S1130400910511F4C69808958131910511F4C798A6
S113041008958431910511F4A898089585319105C2
S113042011F4A99808958631910511F4AA980895B4
S11304308731910511F4AB9808958831910511F431
S1130440AC9808958931910511F4AD9808958A31D5
S1130450910511F4AE9808958B31910511F4AF987C
S113046008958E31910511F4909808958F31910576
S113047011F4919808958032910511F49298089599
S11304808132910511F4939808958232910511F403
S1130490949808958332910511F4959808958432BF
S11304A0910511F496980895859709F09FC097983F
S11304B00895009711F4D89A08958130910511F4A4
S11304C0D99A08958230910511F4DA9A0895833007
S11304D0910511F4DB9A08958430910511F4DC9AA6
S11304E008958530910511F4DD9A089586309105BB
S11304F011F4DE9A08958730910511F4DF9A089576
S11305008A30910511F4C09A08958B30910511F445
S1130510C19A08958C30910511F4C29A08958D30D2
S1130520910511F4C39A08958E30910511F4C49A7B
S113053008958F30910511F4C59A0895803191057D
S113054011F4C69A08958131910511F4C79A08955A
S11305508431910511F4A89A08958531910511F417
S1130560A99A08958631910511F4AA9A08958731BC
S1130570910511F4AB9A08958831910511F4AC9A60
S113058008958931910511F4AD9A08958A31910540
S113059011F4AE9A08958B31910511F4AF9A089530
S11305A08E31910511F4909A08958F31910511F4CB
S11305B0919A08958032910511F4929A08958132A6
S11305C0910511F4939A08958232910511F4949A45
S11305D008958332910511F4959A08958432910512
S11305E011F4969A0895859709F4979A089560E00E
S11305F070E084E190E00E94B70160E070E085E182
S113060090E00E94B70160E070E086E190E00E9413
S1130610B701089561E070E084E190E00E94B701C1
S113062060E070E085E190E00E94B70160E070E076
S113063086E190E00E94B701089560E070E084E1F3
S113064090E00E94B70161E070E085E190E00E94D3
S1130650B70160E070E086E190E00E94B701089580
S113066061E070E084E190E00E94B70161E070E035
S113067085E190E00E94B70160E070E086E190E0DF
S11306800E94B701089561E070E084E190E00E9467
S1130690B70161E070E085E190E00E94B70161E09C
S11306A070E086E190E00E94B7010895CF93DF9354
S11306B0EB018630910599F034F48130910549F0CD
S11306C0029751F014C08830910561F0409769F0A9
S11306D00EC00E94F7020BC00E940A0308C00E94C9
S11306E01D0305C00E94300302C00E944303D0933F
S11306F07F00C0937E00DF91CF910895BC0188EE06
S113070093E00E945505161617064CF489EF90E005
S11307100197F1F700C0000061507109B9F708951D
S1130720CF93C62F882339F061E070E088E190E030
S11307300E94B70106C060E070E088E190E00E948A
S1130740B701CC23D1F061E070E087E190E00E9432
S1130750B70189EF90E00197F1F700C0000060E075
S113076070E087E190E00E94B70180917E00909153
S11307707F000E947E03C15031F7CF9108950F93FB
S11307801F938B019C01DC01CB0180569940A10988
S1130790B109813A984BA140B10568F580E090E039
S11307A0DC01801B910BA20BB30B880F991FAA1FAE
S11307B0BB1F880F991FAA1FBB1F880F991FAA1F51
S11307C0BB1FBC01CD017C5D8B409F4F000F111FEF
S11307D0221F331F000F111F221F331FA90198016D
S11307E0220F331F441F551F220F331F441F551F51
S11307F00E94690502C027E630E029B930BD1F9187
S11308000F91089528E12AB926E820BD1BB80E945B
S1130810BF0308955F9BFECF8CB108950F931F9380
S1130820CF938C01C0E00E940A048B3329F4F801B1
S1130830EC0FF11D80830CC0883021F4CC2311F01F
S1130840C150F1CFF801EC0FF11D8083CF5FEBCFE6
S1130850CF911F910F9108955058BB27AA270E944A
S113086044040C9416050E94080538F00E940F05F4
S113087020F039F49F3F19F426F40C9405050EF486
S1130880E095E7FB0C94FF04E92F0E94270558F339
S1130890BA17620773078407950720F079F4A6F561
S11308A00C9449050EF4E0950B2EBA2FA02D0B01E4
S11308B0B90190010C01CA01A0011124FF27591BA1
S11308C099F0593F50F4503E68F11A16F040A22FA7
S11308D0232F342F4427585FF3CF46953795279518
S11308E0A795F0405395C9F77EF41F16BA0B620B17
S11308F0730B840BBAF09150A1F0FF0FBB1F661F5E
S1130900771F881FC2F70EC0BA0F621F731F841FA0
S113091048F4879577956795B795F7959E3F08F0C6
S1130920B0CF9395880F08F09927EE0F9795879588
S113093008950E94DB0408F481E00895E89409C056
S113094097FB3EF490958095709561957F4F8F4FFE
S11309509F4F9923A9F0F92F96E9BB279395F69514
S1130960879577956795B795F111F8CFFAF4BB0F92
S113097011F460FF1BC06F5F7F4F8F4F9F4F16C0F6
S1130980882311F096E911C0772321F09EE8872F80
S1130990762F05C0662371F096E8862F70E060E03C
S11309A02AF09A95660F771F881FDAF7880F9695B5
S11309B0879597F90895990F0008550FAA0BE0E859
S11309C0FEEF16161706E807F907C0F0121613060D
S11309D0E407F50798F0621B730B840B950B39F44D
S11309E00A2661F0232B242B252B21F408950A26B3
S11309F009F4A140A6958FEF811D811D089597F9F3
S1130A009F6780E870E060E008959FEF80EC0895B0
S1130A1000240A94161617061806090608950024D9
S1130A200A9412161306140605060895092E039453
S1130A30000C11F4882352F0BB0F40F4BF2B11F4C7
S1130A4060FF04C06F5F7F4F8F4F9F4F089557FD26
S1130A509058440F551F59F05F3F71F04795880F28
S1130A6097FB991F61F09F3F79F0879508951216BF
S1130A7013061406551FF2CF4695F1DF08C016166B
S1130A8017061806991FF1CF86957105610508941C
S1130A900895E894BB2766277727CB0197F9089533
S1130AA00E94DB0408F48FEF089597FB072E16F4D9
S1130AB0009407D077FD09D00E948B0507FC05D070
S1130AC03EF4909581959F4F0895709561957F4F61
S1130AD00895A1E21A2EAA1BBB1BFD010DC0AA1F7B
S1130AE0BB1FEE1FFF1FA217B307E407F50720F093
S1130AF0A21BB30BE40BF50B661F771F881F991F0E
S1130B001A9469F760957095809590959B01AC0156
S1130B10BD01CF010895AA1BBB1B51E107C0AA1F49
S1130B20BB1FA617B70710F0A61BB70B881F991F8A
S1130B305A95A9F780959095BC01CD010895FC01C3
S1130B4088279927E89421912032E9F3293010F07D
S1130B502E30C8F32B3241F02D3239F4689404C09E
S1130B600E94BD05820F911D219120532A30C0F3AC
S1130B701EF4909581959F4F08957AE0979F902D4C
S1110B80879F802D910D11240895F894FFCFC6
S9030000FC
